{
  "contractName": "StarNotary",
  "abi": [
    {
      "inputs": [],
      "stateMutability": "nonpayable",
      "type": "constructor"
    },
    {
      "anonymous": false,
      "inputs": [
        {
          "indexed": true,
          "internalType": "address",
          "name": "owner",
          "type": "address"
        },
        {
          "indexed": true,
          "internalType": "address",
          "name": "approved",
          "type": "address"
        },
        {
          "indexed": true,
          "internalType": "uint256",
          "name": "tokenId",
          "type": "uint256"
        }
      ],
      "name": "Approval",
      "type": "event"
    },
    {
      "anonymous": false,
      "inputs": [
        {
          "indexed": true,
          "internalType": "address",
          "name": "owner",
          "type": "address"
        },
        {
          "indexed": true,
          "internalType": "address",
          "name": "operator",
          "type": "address"
        },
        {
          "indexed": false,
          "internalType": "bool",
          "name": "approved",
          "type": "bool"
        }
      ],
      "name": "ApprovalForAll",
      "type": "event"
    },
    {
      "anonymous": false,
      "inputs": [
        {
          "indexed": true,
          "internalType": "address",
          "name": "from",
          "type": "address"
        },
        {
          "indexed": true,
          "internalType": "address",
          "name": "to",
          "type": "address"
        },
        {
          "indexed": true,
          "internalType": "uint256",
          "name": "tokenId",
          "type": "uint256"
        }
      ],
      "name": "Transfer",
      "type": "event"
    },
    {
      "inputs": [
        {
          "internalType": "address",
          "name": "to",
          "type": "address"
        },
        {
          "internalType": "uint256",
          "name": "tokenId",
          "type": "uint256"
        }
      ],
      "name": "approve",
      "outputs": [],
      "stateMutability": "nonpayable",
      "type": "function"
    },
    {
      "inputs": [
        {
          "internalType": "address",
          "name": "owner",
          "type": "address"
        }
      ],
      "name": "balanceOf",
      "outputs": [
        {
          "internalType": "uint256",
          "name": "",
          "type": "uint256"
        }
      ],
      "stateMutability": "view",
      "type": "function",
      "constant": true
    },
    {
      "inputs": [
        {
          "internalType": "uint256",
          "name": "tokenId",
          "type": "uint256"
        }
      ],
      "name": "getApproved",
      "outputs": [
        {
          "internalType": "address",
          "name": "",
          "type": "address"
        }
      ],
      "stateMutability": "view",
      "type": "function",
      "constant": true
    },
    {
      "inputs": [
        {
          "internalType": "address",
          "name": "owner",
          "type": "address"
        },
        {
          "internalType": "address",
          "name": "operator",
          "type": "address"
        }
      ],
      "name": "isApprovedForAll",
      "outputs": [
        {
          "internalType": "bool",
          "name": "",
          "type": "bool"
        }
      ],
      "stateMutability": "view",
      "type": "function",
      "constant": true
    },
    {
      "inputs": [],
      "name": "name",
      "outputs": [
        {
          "internalType": "string",
          "name": "",
          "type": "string"
        }
      ],
      "stateMutability": "view",
      "type": "function",
      "constant": true
    },
    {
      "inputs": [
        {
          "internalType": "uint256",
          "name": "tokenId",
          "type": "uint256"
        }
      ],
      "name": "ownerOf",
      "outputs": [
        {
          "internalType": "address",
          "name": "",
          "type": "address"
        }
      ],
      "stateMutability": "view",
      "type": "function",
      "constant": true
    },
    {
      "inputs": [
        {
          "internalType": "address",
          "name": "from",
          "type": "address"
        },
        {
          "internalType": "address",
          "name": "to",
          "type": "address"
        },
        {
          "internalType": "uint256",
          "name": "tokenId",
          "type": "uint256"
        }
      ],
      "name": "safeTransferFrom",
      "outputs": [],
      "stateMutability": "nonpayable",
      "type": "function"
    },
    {
      "inputs": [
        {
          "internalType": "address",
          "name": "from",
          "type": "address"
        },
        {
          "internalType": "address",
          "name": "to",
          "type": "address"
        },
        {
          "internalType": "uint256",
          "name": "tokenId",
          "type": "uint256"
        },
        {
          "internalType": "bytes",
          "name": "_data",
          "type": "bytes"
        }
      ],
      "name": "safeTransferFrom",
      "outputs": [],
      "stateMutability": "nonpayable",
      "type": "function"
    },
    {
      "inputs": [
        {
          "internalType": "address",
          "name": "operator",
          "type": "address"
        },
        {
          "internalType": "bool",
          "name": "approved",
          "type": "bool"
        }
      ],
      "name": "setApprovalForAll",
      "outputs": [],
      "stateMutability": "nonpayable",
      "type": "function"
    },
    {
      "inputs": [
        {
          "internalType": "uint256",
          "name": "",
          "type": "uint256"
        }
      ],
      "name": "starsForSale",
      "outputs": [
        {
          "internalType": "uint256",
          "name": "",
          "type": "uint256"
        }
      ],
      "stateMutability": "view",
      "type": "function",
      "constant": true
    },
    {
      "inputs": [
        {
          "internalType": "bytes4",
          "name": "interfaceId",
          "type": "bytes4"
        }
      ],
      "name": "supportsInterface",
      "outputs": [
        {
          "internalType": "bool",
          "name": "",
          "type": "bool"
        }
      ],
      "stateMutability": "view",
      "type": "function",
      "constant": true
    },
    {
      "inputs": [],
      "name": "symbol",
      "outputs": [
        {
          "internalType": "string",
          "name": "",
          "type": "string"
        }
      ],
      "stateMutability": "view",
      "type": "function",
      "constant": true
    },
    {
      "inputs": [
        {
          "internalType": "uint256",
          "name": "",
          "type": "uint256"
        }
      ],
      "name": "tokenIdToStarInfo",
      "outputs": [
        {
          "internalType": "string",
          "name": "name",
          "type": "string"
        }
      ],
      "stateMutability": "view",
      "type": "function",
      "constant": true
    },
    {
      "inputs": [
        {
          "internalType": "uint256",
          "name": "tokenId",
          "type": "uint256"
        }
      ],
      "name": "tokenURI",
      "outputs": [
        {
          "internalType": "string",
          "name": "",
          "type": "string"
        }
      ],
      "stateMutability": "view",
      "type": "function",
      "constant": true
    },
    {
      "inputs": [
        {
          "internalType": "address",
          "name": "from",
          "type": "address"
        },
        {
          "internalType": "address",
          "name": "to",
          "type": "address"
        },
        {
          "internalType": "uint256",
          "name": "tokenId",
          "type": "uint256"
        }
      ],
      "name": "transferFrom",
      "outputs": [],
      "stateMutability": "nonpayable",
      "type": "function"
    },
    {
      "inputs": [
        {
          "internalType": "string",
          "name": "_name",
          "type": "string"
        },
        {
          "internalType": "uint256",
          "name": "_tokenId",
          "type": "uint256"
        }
      ],
      "name": "createStar",
      "outputs": [],
      "stateMutability": "nonpayable",
      "type": "function"
    },
    {
      "inputs": [
        {
          "internalType": "uint256",
          "name": "_tokenId",
          "type": "uint256"
        },
        {
          "internalType": "uint256",
          "name": "_price",
          "type": "uint256"
        }
      ],
      "name": "putStarUpForSale",
      "outputs": [],
      "stateMutability": "nonpayable",
      "type": "function"
    },
    {
      "inputs": [
        {
          "internalType": "uint256",
          "name": "_tokenId",
          "type": "uint256"
        }
      ],
      "name": "buyStar",
      "outputs": [],
      "stateMutability": "payable",
      "type": "function",
      "payable": true
    },
    {
      "inputs": [
        {
          "internalType": "uint256",
          "name": "_tokenId",
          "type": "uint256"
        }
      ],
      "name": "lookUptokenIdToStarInfo",
      "outputs": [
        {
          "internalType": "string",
          "name": "",
          "type": "string"
        }
      ],
      "stateMutability": "view",
      "type": "function",
      "constant": true
    },
    {
      "inputs": [
        {
          "internalType": "uint256",
          "name": "_tokenId1",
          "type": "uint256"
        },
        {
          "internalType": "uint256",
          "name": "_tokenId2",
          "type": "uint256"
        }
      ],
      "name": "exchangeStars",
      "outputs": [],
      "stateMutability": "nonpayable",
      "type": "function"
    },
    {
      "inputs": [
        {
          "internalType": "address",
          "name": "_to1",
          "type": "address"
        },
        {
          "internalType": "uint256",
          "name": "_tokenId",
          "type": "uint256"
        }
      ],
      "name": "transferStar",
      "outputs": [],
      "stateMutability": "nonpayable",
      "type": "function"
    }
  ],
  "bytecode": "0x60806040523480156200001157600080fd5b506040518060400160405280600b81526020017f53746172204e6f746172790000000000000000000000000000000000000000008152506040518060400160405280600281526020017f5354000000000000000000000000000000000000000000000000000000000000815250816000908051906020019062000096929190620000b8565b508060019080519060200190620000af929190620000b8565b505050620001cd565b828054620000c69062000168565b90600052602060002090601f016020900481019282620000ea576000855562000136565b82601f106200010557805160ff191683800117855562000136565b8280016001018555821562000136579182015b828111156200013557825182559160200191906001019062000118565b5b50905062000145919062000149565b5090565b5b80821115620001645760008160009055506001016200014a565b5090565b600060028204905060018216806200018157607f821691505b602082108114156200019857620001976200019e565b5b50919050565b7f4e487b7100000000000000000000000000000000000000000000000000000000600052602260045260246000fd5b6137d780620001dd6000396000f3fe60806040526004361061012a5760003560e01c806342842e0e116100ab578063a22cb4651161006f578063a22cb46514610405578063b88d4fde1461042e578063c87b56dd14610457578063d7830ccb14610494578063e7152a5c146104d1578063e985e9c5146104fa5761012a565b806342842e0e1461030e5780636352211e1461033757806370a082311461037457806395d89b41146103b15780639697c0a1146103dc5761012a565b806315e0afa5116100f257806315e0afa51461023a5780631967fd981461026357806323b872dd146102a05780632f1c34ef146102c9578063316a4361146102e55761012a565b806301ffc9a71461012f5780630564b1301461016c57806306fdde03146101a9578063081812fc146101d4578063095ea7b314610211575b600080fd5b34801561013b57600080fd5b50610156600480360381019061015191906123b6565b610537565b6040516101639190612987565b60405180910390f35b34801561017857600080fd5b50610193600480360381019061018e919061245c565b610619565b6040516101a09190612ce4565b60405180910390f35b3480156101b557600080fd5b506101be610631565b6040516101cb91906129a2565b60405180910390f35b3480156101e057600080fd5b506101fb60048036038101906101f6919061245c565b6106c3565b6040516102089190612920565b60405180910390f35b34801561021d57600080fd5b506102386004803603810190610233919061237a565b610748565b005b34801561024657600080fd5b50610261600480360381019061025c9190612485565b610860565b005b34801561026f57600080fd5b5061028a6004803603810190610285919061245c565b610b34565b60405161029791906129a2565b60405180910390f35b3480156102ac57600080fd5b506102c760048036038101906102c29190612274565b610bda565b005b6102e360048036038101906102de919061245c565b610c3a565b005b3480156102f157600080fd5b5061030c60048036038101906103079190612485565b610daa565b005b34801561031a57600080fd5b5061033560048036038101906103309190612274565b610e3c565b005b34801561034357600080fd5b5061035e6004803603810190610359919061245c565b610e5c565b60405161036b9190612920565b60405180910390f35b34801561038057600080fd5b5061039b6004803603810190610396919061220f565b610f0e565b6040516103a89190612ce4565b60405180910390f35b3480156103bd57600080fd5b506103c6610fc6565b6040516103d391906129a2565b60405180910390f35b3480156103e857600080fd5b5061040360048036038101906103fe9190612408565b611058565b005b34801561041157600080fd5b5061042c6004803603810190610427919061233e565b6110ae565b005b34801561043a57600080fd5b50610455600480360381019061045091906122c3565b61122f565b005b34801561046357600080fd5b5061047e6004803603810190610479919061245c565b611291565b60405161048b91906129a2565b60405180910390f35b3480156104a057600080fd5b506104bb60048036038101906104b6919061245c565b611338565b6040516104c891906129a2565b60405180910390f35b3480156104dd57600080fd5b506104f860048036038101906104f3919061237a565b611428565b005b34801561050657600080fd5b50610521600480360381019061051c9190612238565b611531565b60405161052e9190612987565b60405180910390f35b60007f80ac58cd000000000000000000000000000000000000000000000000000000007bffffffffffffffffffffffffffffffffffffffffffffffffffffffff1916827bffffffffffffffffffffffffffffffffffffffffffffffffffffffff1916148061060257507f5b5e139f000000000000000000000000000000000000000000000000000000007bffffffffffffffffffffffffffffffffffffffffffffffffffffffff1916827bffffffffffffffffffffffffffffffffffffffffffffffffffffffff1916145b806106125750610611826115c5565b5b9050919050565b60076020528060005260406000206000915090505481565b60606000805461064090612f3a565b80601f016020809104026020016040519081016040528092919081815260200182805461066c90612f3a565b80156106b95780601f1061068e576101008083540402835291602001916106b9565b820191906000526020600020905b81548152906001019060200180831161069c57829003601f168201915b5050505050905090565b60006106ce8261162f565b61070d576040517f08c379a000000000000000000000000000000000000000000000000000000000815260040161070490612be4565b60405180910390fd5b6004600083815260200190815260200160002060009054906101000a900473ffffffffffffffffffffffffffffffffffffffff169050919050565b600061075382610e5c565b90508073ffffffffffffffffffffffffffffffffffffffff168373ffffffffffffffffffffffffffffffffffffffff1614156107c4576040517f08c379a00000000000000000000000000000000000000000000000000000000081526004016107bb90612c64565b60405180910390fd5b8073ffffffffffffffffffffffffffffffffffffffff166107e361169b565b73ffffffffffffffffffffffffffffffffffffffff16148061081257506108118161080c61169b565b611531565b5b610851576040517f08c379a000000000000000000000000000000000000000000000000000000000815260040161084890612b24565b60405180910390fd5b61085b83836116a3565b505050565b600061086b83610e5c565b9050600061087883610e5c565b90508073ffffffffffffffffffffffffffffffffffffffff168273ffffffffffffffffffffffffffffffffffffffff1614156108e9576040517f08c379a00000000000000000000000000000000000000000000000000000000081526004016108e090612b84565b60405180910390fd5b8173ffffffffffffffffffffffffffffffffffffffff1661090861169b565b73ffffffffffffffffffffffffffffffffffffffff161415610a2b5761092f82828661175c565b61093a81838561175c565b61094384610e5c565b73ffffffffffffffffffffffffffffffffffffffff168173ffffffffffffffffffffffffffffffffffffffff16146109b0576040517f08c379a00000000000000000000000000000000000000000000000000000000081526004016109a790612a64565b60405180910390fd5b6109b983610e5c565b73ffffffffffffffffffffffffffffffffffffffff168273ffffffffffffffffffffffffffffffffffffffff1614610a26576040517f08c379a0000000000000000000000000000000000000000000000000000000008152600401610a1d90612ca4565b60405180910390fd5b610b2e565b610a3681838661175c565b610a4182828561175c565b610a4a84610e5c565b73ffffffffffffffffffffffffffffffffffffffff168273ffffffffffffffffffffffffffffffffffffffff1614610ab7576040517f08c379a0000000000000000000000000000000000000000000000000000000008152600401610aae90612b04565b60405180910390fd5b610ac083610e5c565b73ffffffffffffffffffffffffffffffffffffffff168173ffffffffffffffffffffffffffffffffffffffff1614610b2d576040517f08c379a0000000000000000000000000000000000000000000000000000000008152600401610b2490612bc4565b60405180910390fd5b5b50505050565b6006602052806000526040600020600091509050806000018054610b5790612f3a565b80601f0160208091040260200160405190810160405280929190818152602001828054610b8390612f3a565b8015610bd05780601f10610ba557610100808354040283529160200191610bd0565b820191906000526020600020905b815481529060010190602001808311610bb357829003601f168201915b5050505050905081565b610beb610be561169b565b826119b8565b610c2a576040517f08c379a0000000000000000000000000000000000000000000000000000000008152600401610c2190612c84565b60405180910390fd5b610c3583838361175c565b505050565b6000600760008381526020019081526020016000205411610c90576040517f08c379a0000000000000000000000000000000000000000000000000000000008152600401610c87906129e4565b60405180910390fd5b6000600760008381526020019081526020016000205490506000610cb383610e5c565b905081341015610cf8576040517f08c379a0000000000000000000000000000000000000000000000000000000008152600401610cef90612cc4565b60405180910390fd5b610d0381338561175c565b8073ffffffffffffffffffffffffffffffffffffffff166108fc839081150290604051600060405180830381858888f19350505050158015610d49573d6000803e3d6000fd5b5081341115610da5573373ffffffffffffffffffffffffffffffffffffffff166108fc8334610d789190612e50565b9081150290604051600060405180830381858888f19350505050158015610da3573d6000803e3d6000fd5b505b505050565b3373ffffffffffffffffffffffffffffffffffffffff16610dca83610e5c565b73ffffffffffffffffffffffffffffffffffffffff1614610e20576040517f08c379a0000000000000000000000000000000000000000000000000000000008152600401610e17906129c4565b60405180910390fd5b8060076000848152602001908152602001600020819055505050565b610e578383836040518060200160405280600081525061122f565b505050565b6000806002600084815260200190815260200160002060009054906101000a900473ffffffffffffffffffffffffffffffffffffffff169050600073ffffffffffffffffffffffffffffffffffffffff168173ffffffffffffffffffffffffffffffffffffffff161415610f05576040517f08c379a0000000000000000000000000000000000000000000000000000000008152600401610efc90612b64565b60405180910390fd5b80915050919050565b60008073ffffffffffffffffffffffffffffffffffffffff168273ffffffffffffffffffffffffffffffffffffffff161415610f7f576040517f08c379a0000000000000000000000000000000000000000000000000000000008152600401610f7690612b44565b60405180910390fd5b600360008373ffffffffffffffffffffffffffffffffffffffff1673ffffffffffffffffffffffffffffffffffffffff168152602001908152602001600020549050919050565b606060018054610fd590612f3a565b80601f016020809104026020016040519081016040528092919081815260200182805461100190612f3a565b801561104e5780601f106110235761010080835404028352916020019161104e565b820191906000526020600020905b81548152906001019060200180831161103157829003601f168201915b5050505050905090565b600060405180602001604052808481525090508060066000848152602001908152602001600020600082015181600001908051906020019061109b929190612033565b509050506110a93383611a96565b505050565b6110b661169b565b73ffffffffffffffffffffffffffffffffffffffff168273ffffffffffffffffffffffffffffffffffffffff161415611124576040517f08c379a000000000000000000000000000000000000000000000000000000000815260040161111b90612aa4565b60405180910390fd5b806005600061113161169b565b73ffffffffffffffffffffffffffffffffffffffff1673ffffffffffffffffffffffffffffffffffffffff16815260200190815260200160002060008473ffffffffffffffffffffffffffffffffffffffff1673ffffffffffffffffffffffffffffffffffffffff16815260200190815260200160002060006101000a81548160ff0219169083151502179055508173ffffffffffffffffffffffffffffffffffffffff166111de61169b565b73ffffffffffffffffffffffffffffffffffffffff167f17307eab39ab6107e8899845ad3d59bd9653f200f220920489ca2b5937696c31836040516112239190612987565b60405180910390a35050565b61124061123a61169b565b836119b8565b61127f576040517f08c379a000000000000000000000000000000000000000000000000000000000815260040161127690612c84565b60405180910390fd5b61128b84848484611c64565b50505050565b606061129c8261162f565b6112db576040517f08c379a00000000000000000000000000000000000000000000000000000000081526004016112d290612c44565b60405180910390fd5b60006112e5611cc0565b905060008151116113055760405180602001604052806000815250611330565b8061130f84611cd7565b6040516020016113209291906128fc565b6040516020818303038152906040525b915050919050565b60606113438261162f565b611382576040517f08c379a000000000000000000000000000000000000000000000000000000000815260040161137990612c04565b60405180910390fd5b6006600083815260200190815260200160002060000180546113a390612f3a565b80601f01602080910402602001604051908101604052809291908181526020018280546113cf90612f3a565b801561141c5780601f106113f15761010080835404028352916020019161141c565b820191906000526020600020905b8154815290600101906020018083116113ff57829003601f168201915b50505050509050919050565b61143181610e5c565b73ffffffffffffffffffffffffffffffffffffffff1661144f61169b565b73ffffffffffffffffffffffffffffffffffffffff16146114a5576040517f08c379a000000000000000000000000000000000000000000000000000000000815260040161149c90612ac4565b60405180910390fd5b6114b76114b061169b565b8383610bda565b6114c081610e5c565b73ffffffffffffffffffffffffffffffffffffffff168273ffffffffffffffffffffffffffffffffffffffff161461152d576040517f08c379a000000000000000000000000000000000000000000000000000000000815260040161152490612a04565b60405180910390fd5b5050565b6000600560008473ffffffffffffffffffffffffffffffffffffffff1673ffffffffffffffffffffffffffffffffffffffff16815260200190815260200160002060008373ffffffffffffffffffffffffffffffffffffffff1673ffffffffffffffffffffffffffffffffffffffff16815260200190815260200160002060009054906101000a900460ff16905092915050565b60007f01ffc9a7000000000000000000000000000000000000000000000000000000007bffffffffffffffffffffffffffffffffffffffffffffffffffffffff1916827bffffffffffffffffffffffffffffffffffffffffffffffffffffffff1916149050919050565b60008073ffffffffffffffffffffffffffffffffffffffff166002600084815260200190815260200160002060009054906101000a900473ffffffffffffffffffffffffffffffffffffffff1673ffffffffffffffffffffffffffffffffffffffff1614159050919050565b600033905090565b816004600083815260200190815260200160002060006101000a81548173ffffffffffffffffffffffffffffffffffffffff021916908373ffffffffffffffffffffffffffffffffffffffff160217905550808273ffffffffffffffffffffffffffffffffffffffff1661171683610e5c565b73ffffffffffffffffffffffffffffffffffffffff167f8c5be1e5ebec7d5bd14f71427d1e84f3dd0314c0f7b2291e5b200ac8c7c3b92560405160405180910390a45050565b8273ffffffffffffffffffffffffffffffffffffffff1661177c82610e5c565b73ffffffffffffffffffffffffffffffffffffffff16146117d2576040517f08c379a00000000000000000000000000000000000000000000000000000000081526004016117c990612c24565b60405180910390fd5b600073ffffffffffffffffffffffffffffffffffffffff168273ffffffffffffffffffffffffffffffffffffffff161415611842576040517f08c379a000000000000000000000000000000000000000000000000000000000815260040161183990612a84565b60405180910390fd5b61184d838383611e84565b6118586000826116a3565b6001600360008573ffffffffffffffffffffffffffffffffffffffff1673ffffffffffffffffffffffffffffffffffffffff16815260200190815260200160002060008282546118a89190612e50565b925050819055506001600360008473ffffffffffffffffffffffffffffffffffffffff1673ffffffffffffffffffffffffffffffffffffffff16815260200190815260200160002060008282546118ff9190612dc9565b92505081905550816002600083815260200190815260200160002060006101000a81548173ffffffffffffffffffffffffffffffffffffffff021916908373ffffffffffffffffffffffffffffffffffffffff160217905550808273ffffffffffffffffffffffffffffffffffffffff168473ffffffffffffffffffffffffffffffffffffffff167fddf252ad1be2c89b69c2b068fc378daa952ba7f163c4a11628f55a4df523b3ef60405160405180910390a4505050565b60006119c38261162f565b611a02576040517f08c379a00000000000000000000000000000000000000000000000000000000081526004016119f990612ae4565b60405180910390fd5b6000611a0d83610e5c565b90508073ffffffffffffffffffffffffffffffffffffffff168473ffffffffffffffffffffffffffffffffffffffff161480611a7c57508373ffffffffffffffffffffffffffffffffffffffff16611a64846106c3565b73ffffffffffffffffffffffffffffffffffffffff16145b80611a8d5750611a8c8185611531565b5b91505092915050565b600073ffffffffffffffffffffffffffffffffffffffff168273ffffffffffffffffffffffffffffffffffffffff161415611b06576040517f08c379a0000000000000000000000000000000000000000000000000000000008152600401611afd90612ba4565b60405180910390fd5b611b0f8161162f565b15611b4f576040517f08c379a0000000000000000000000000000000000000000000000000000000008152600401611b4690612a44565b60405180910390fd5b611b5b60008383611e84565b6001600360008473ffffffffffffffffffffffffffffffffffffffff1673ffffffffffffffffffffffffffffffffffffffff1681526020019081526020016000206000828254611bab9190612dc9565b92505081905550816002600083815260200190815260200160002060006101000a81548173ffffffffffffffffffffffffffffffffffffffff021916908373ffffffffffffffffffffffffffffffffffffffff160217905550808273ffffffffffffffffffffffffffffffffffffffff16600073ffffffffffffffffffffffffffffffffffffffff167fddf252ad1be2c89b69c2b068fc378daa952ba7f163c4a11628f55a4df523b3ef60405160405180910390a45050565b611c6f84848461175c565b611c7b84848484611e89565b611cba576040517f08c379a0000000000000000000000000000000000000000000000000000000008152600401611cb190612a24565b60405180910390fd5b50505050565b606060405180602001604052806000815250905090565b60606000821415611d1f576040518060400160405280600181526020017f30000000000000000000000000000000000000000000000000000000000000008152509050611e7f565b600082905060005b60008214611d51578080611d3a90612f9d565b915050600a82611d4a9190612e1f565b9150611d27565b60008167ffffffffffffffff811115611d93577f4e487b7100000000000000000000000000000000000000000000000000000000600052604160045260246000fd5b6040519080825280601f01601f191660200182016040528015611dc55781602001600182028036833780820191505090505b5090505b60008514611e7857600182611dde9190612e50565b9150600a85611ded9190612fe6565b6030611df99190612dc9565b60f81b818381518110611e35577f4e487b7100000000000000000000000000000000000000000000000000000000600052603260045260246000fd5b60200101907effffffffffffffffffffffffffffffffffffffffffffffffffffffffffffff1916908160001a905350600a85611e719190612e1f565b9450611dc9565b8093505050505b919050565b505050565b6000611eaa8473ffffffffffffffffffffffffffffffffffffffff16612020565b15612013578373ffffffffffffffffffffffffffffffffffffffff1663150b7a02611ed361169b565b8786866040518563ffffffff1660e01b8152600401611ef5949392919061293b565b602060405180830381600087803b158015611f0f57600080fd5b505af1925050508015611f4057506040513d601f19601f82011682018060405250810190611f3d91906123df565b60015b611fc3573d8060008114611f70576040519150601f19603f3d011682016040523d82523d6000602084013e611f75565b606091505b50600081511415611fbb576040517f08c379a0000000000000000000000000000000000000000000000000000000008152600401611fb290612a24565b60405180910390fd5b805181602001fd5b63150b7a0260e01b7bffffffffffffffffffffffffffffffffffffffffffffffffffffffff1916817bffffffffffffffffffffffffffffffffffffffffffffffffffffffff191614915050612018565b600190505b949350505050565b600080823b905060008111915050919050565b82805461203f90612f3a565b90600052602060002090601f01602090048101928261206157600085556120a8565b82601f1061207a57805160ff19168380011785556120a8565b828001600101855582156120a8579182015b828111156120a757825182559160200191906001019061208c565b5b5090506120b591906120b9565b5090565b5b808211156120d25760008160009055506001016120ba565b5090565b60006120e96120e484612d24565b612cff565b90508281526020810184848401111561210157600080fd5b61210c848285612ef8565b509392505050565b600061212761212284612d55565b612cff565b90508281526020810184848401111561213f57600080fd5b61214a848285612ef8565b509392505050565b60008135905061216181613745565b92915050565b6000813590506121768161375c565b92915050565b60008135905061218b81613773565b92915050565b6000815190506121a081613773565b92915050565b600082601f8301126121b757600080fd5b81356121c78482602086016120d6565b91505092915050565b600082601f8301126121e157600080fd5b81356121f1848260208601612114565b91505092915050565b6000813590506122098161378a565b92915050565b60006020828403121561222157600080fd5b600061222f84828501612152565b91505092915050565b6000806040838503121561224b57600080fd5b600061225985828601612152565b925050602061226a85828601612152565b9150509250929050565b60008060006060848603121561228957600080fd5b600061229786828701612152565b93505060206122a886828701612152565b92505060406122b9868287016121fa565b9150509250925092565b600080600080608085870312156122d957600080fd5b60006122e787828801612152565b94505060206122f887828801612152565b9350506040612309878288016121fa565b925050606085013567ffffffffffffffff81111561232657600080fd5b612332878288016121a6565b91505092959194509250565b6000806040838503121561235157600080fd5b600061235f85828601612152565b925050602061237085828601612167565b9150509250929050565b6000806040838503121561238d57600080fd5b600061239b85828601612152565b92505060206123ac858286016121fa565b9150509250929050565b6000602082840312156123c857600080fd5b60006123d68482850161217c565b91505092915050565b6000602082840312156123f157600080fd5b60006123ff84828501612191565b91505092915050565b6000806040838503121561241b57600080fd5b600083013567ffffffffffffffff81111561243557600080fd5b612441858286016121d0565b9250506020612452858286016121fa565b9150509250929050565b60006020828403121561246e57600080fd5b600061247c848285016121fa565b91505092915050565b6000806040838503121561249857600080fd5b60006124a6858286016121fa565b92505060206124b7858286016121fa565b9150509250929050565b6124ca81612e84565b82525050565b6124d981612e96565b82525050565b60006124ea82612d86565b6124f48185612d9c565b9350612504818560208601612f07565b61250d816130d3565b840191505092915050565b600061252382612d91565b61252d8185612dad565b935061253d818560208601612f07565b612546816130d3565b840191505092915050565b600061255c82612d91565b6125668185612dbe565b9350612576818560208601612f07565b80840191505092915050565b600061258f602783612dad565b915061259a826130e4565b604082019050919050565b60006125b2601d83612dad565b91506125bd82613133565b602082019050919050565b60006125d5601983612dad565b91506125e08261315c565b602082019050919050565b60006125f8603283612dad565b915061260382613185565b604082019050919050565b600061261b601c83612dad565b9150612626826131d4565b602082019050919050565b600061263e602883612dad565b9150612649826131fd565b604082019050919050565b6000612661602483612dad565b915061266c8261324c565b604082019050919050565b6000612684601983612dad565b915061268f8261329b565b602082019050919050565b60006126a7601883612dad565b91506126b2826132c4565b602082019050919050565b60006126ca602c83612dad565b91506126d5826132ed565b604082019050919050565b60006126ed602783612dad565b91506126f88261333c565b604082019050919050565b6000612710603883612dad565b915061271b8261338b565b604082019050919050565b6000612733602a83612dad565b915061273e826133da565b604082019050919050565b6000612756602983612dad565b915061276182613429565b604082019050919050565b6000612779601b83612dad565b915061278482613478565b602082019050919050565b600061279c602083612dad565b91506127a7826134a1565b602082019050919050565b60006127bf602783612dad565b91506127ca826134ca565b604082019050919050565b60006127e2602c83612dad565b91506127ed82613519565b604082019050919050565b6000612805601283612dad565b915061281082613568565b602082019050919050565b6000612828602983612dad565b915061283382613591565b604082019050919050565b600061284b602f83612dad565b9150612856826135e0565b604082019050919050565b600061286e602183612dad565b91506128798261362f565b604082019050919050565b6000612891603183612dad565b915061289c8261367e565b604082019050919050565b60006128b4602883612dad565b91506128bf826136cd565b604082019050919050565b60006128d7601183612dad565b91506128e28261371c565b602082019050919050565b6128f681612eee565b82525050565b60006129088285612551565b91506129148284612551565b91508190509392505050565b600060208201905061293560008301846124c1565b92915050565b600060808201905061295060008301876124c1565b61295d60208301866124c1565b61296a60408301856128ed565b818103606083015261297c81846124df565b905095945050505050565b600060208201905061299c60008301846124d0565b92915050565b600060208201905081810360008301526129bc8184612518565b905092915050565b600060208201905081810360008301526129dd81612582565b9050919050565b600060208201905081810360008301526129fd816125a5565b9050919050565b60006020820190508181036000830152612a1d816125c8565b9050919050565b60006020820190508181036000830152612a3d816125eb565b9050919050565b60006020820190508181036000830152612a5d8161260e565b9050919050565b60006020820190508181036000830152612a7d81612631565b9050919050565b60006020820190508181036000830152612a9d81612654565b9050919050565b60006020820190508181036000830152612abd81612677565b9050919050565b60006020820190508181036000830152612add8161269a565b9050919050565b60006020820190508181036000830152612afd816126bd565b9050919050565b60006020820190508181036000830152612b1d816126e0565b9050919050565b60006020820190508181036000830152612b3d81612703565b9050919050565b60006020820190508181036000830152612b5d81612726565b9050919050565b60006020820190508181036000830152612b7d81612749565b9050919050565b60006020820190508181036000830152612b9d8161276c565b9050919050565b60006020820190508181036000830152612bbd8161278f565b9050919050565b60006020820190508181036000830152612bdd816127b2565b9050919050565b60006020820190508181036000830152612bfd816127d5565b9050919050565b60006020820190508181036000830152612c1d816127f8565b9050919050565b60006020820190508181036000830152612c3d8161281b565b9050919050565b60006020820190508181036000830152612c5d8161283e565b9050919050565b60006020820190508181036000830152612c7d81612861565b9050919050565b60006020820190508181036000830152612c9d81612884565b9050919050565b60006020820190508181036000830152612cbd816128a7565b9050919050565b60006020820190508181036000830152612cdd816128ca565b9050919050565b6000602082019050612cf960008301846128ed565b92915050565b6000612d09612d1a565b9050612d158282612f6c565b919050565b6000604051905090565b600067ffffffffffffffff821115612d3f57612d3e6130a4565b5b612d48826130d3565b9050602081019050919050565b600067ffffffffffffffff821115612d7057612d6f6130a4565b5b612d79826130d3565b9050602081019050919050565b600081519050919050565b600081519050919050565b600082825260208201905092915050565b600082825260208201905092915050565b600081905092915050565b6000612dd482612eee565b9150612ddf83612eee565b9250827fffffffffffffffffffffffffffffffffffffffffffffffffffffffffffffffff03821115612e1457612e13613017565b5b828201905092915050565b6000612e2a82612eee565b9150612e3583612eee565b925082612e4557612e44613046565b5b828204905092915050565b6000612e5b82612eee565b9150612e6683612eee565b925082821015612e7957612e78613017565b5b828203905092915050565b6000612e8f82612ece565b9050919050565b60008115159050919050565b60007fffffffff0000000000000000000000000000000000000000000000000000000082169050919050565b600073ffffffffffffffffffffffffffffffffffffffff82169050919050565b6000819050919050565b82818337600083830152505050565b60005b83811015612f25578082015181840152602081019050612f0a565b83811115612f34576000848401525b50505050565b60006002820490506001821680612f5257607f821691505b60208210811415612f6657612f65613075565b5b50919050565b612f75826130d3565b810181811067ffffffffffffffff82111715612f9457612f936130a4565b5b80604052505050565b6000612fa882612eee565b91507fffffffffffffffffffffffffffffffffffffffffffffffffffffffffffffffff821415612fdb57612fda613017565b5b600182019050919050565b6000612ff182612eee565b9150612ffc83612eee565b92508261300c5761300b613046565b5b828206905092915050565b7f4e487b7100000000000000000000000000000000000000000000000000000000600052601160045260246000fd5b7f4e487b7100000000000000000000000000000000000000000000000000000000600052601260045260246000fd5b7f4e487b7100000000000000000000000000000000000000000000000000000000600052602260045260246000fd5b7f4e487b7100000000000000000000000000000000000000000000000000000000600052604160045260246000fd5b6000601f19601f8301169050919050565b7f596f752063616e27742073616c6520746865205374617220796f7520646f6e2760008201527f74206f776e656400000000000000000000000000000000000000000000000000602082015250565b7f5468652073746172206d75737420626520757020666f722073616c6521000000600082015250565b7f5472616e73666572206f6620746f6b656e206661696c65642100000000000000600082015250565b7f4552433732313a207472616e7366657220746f206e6f6e20455243373231526560008201527f63656976657220696d706c656d656e7465720000000000000000000000000000602082015250565b7f4552433732313a20746f6b656e20616c7265616479206d696e74656400000000600082015250565b7f436f756c646e2774207472616e7366657220746f6b656e3120746f20326e642060008201527f616464726573732e000000000000000000000000000000000000000000000000602082015250565b7f4552433732313a207472616e7366657220746f20746865207a65726f2061646460008201527f7265737300000000000000000000000000000000000000000000000000000000602082015250565b7f4552433732313a20617070726f766520746f2063616c6c657200000000000000600082015250565b7f53656e646572206973206e6f7420746865206f776e65722e0000000000000000600082015250565b7f4552433732313a206f70657261746f7220717565727920666f72206e6f6e657860008201527f697374656e7420746f6b656e0000000000000000000000000000000000000000602082015250565b7f436f756c646e2774207472616e7366657220746f6b656e3120746f203173742060008201527f6164647265737300000000000000000000000000000000000000000000000000602082015250565b7f4552433732313a20617070726f76652063616c6c6572206973206e6f74206f7760008201527f6e6572206e6f7220617070726f76656420666f7220616c6c0000000000000000602082015250565b7f4552433732313a2062616c616e636520717565727920666f7220746865207a6560008201527f726f206164647265737300000000000000000000000000000000000000000000602082015250565b7f4552433732313a206f776e657220717565727920666f72206e6f6e657869737460008201527f656e7420746f6b656e0000000000000000000000000000000000000000000000602082015250565b7f4f776e6572206f6620626f746820746f6b656e2069732073616d650000000000600082015250565b7f4552433732313a206d696e7420746f20746865207a65726f2061646472657373600082015250565b7f436f756c646e2774207472616e7366657220746f6b656e3220746f20326e642060008201527f6164647265737300000000000000000000000000000000000000000000000000602082015250565b7f4552433732313a20617070726f76656420717565727920666f72206e6f6e657860008201527f697374656e7420746f6b656e0000000000000000000000000000000000000000602082015250565b7f546f6b656e20646f65736e277420657869740000000000000000000000000000600082015250565b7f4552433732313a207472616e73666572206f6620746f6b656e2074686174206960008201527f73206e6f74206f776e0000000000000000000000000000000000000000000000602082015250565b7f4552433732314d657461646174613a2055524920717565727920666f72206e6f60008201527f6e6578697374656e7420746f6b656e0000000000000000000000000000000000602082015250565b7f4552433732313a20617070726f76616c20746f2063757272656e74206f776e6560008201527f7200000000000000000000000000000000000000000000000000000000000000602082015250565b7f4552433732313a207472616e736665722063616c6c6572206973206e6f74206f60008201527f776e6572206e6f7220617070726f766564000000000000000000000000000000602082015250565b7f436f756c646e2774207472616e7366657220746f6b656e3220746f203173742060008201527f616464726573732e000000000000000000000000000000000000000000000000602082015250565b7f4e6f7420656e6f75676820457468657221000000000000000000000000000000600082015250565b61374e81612e84565b811461375957600080fd5b50565b61376581612e96565b811461377057600080fd5b50565b61377c81612ea2565b811461378757600080fd5b50565b61379381612eee565b811461379e57600080fd5b5056fea2646970667358221220edc3e1398b6e6be1d3c1e8fbb044c7c034a64cdf84bc251b4ec29cd5a102989f64736f6c63430008030033",
  "immutableReferences": {},
  "source": "// SPDX-License-Identifier: UNLICENSED\npragma solidity >=0.8.3;\n\n//Importing openzeppelin-solidity ERC-721 implemented Standard\nimport \"@openzeppelin/contracts/token/ERC721/ERC721.sol\";\n\n// StarNotary Contract declaration inheritance the ERC721 openzeppelin implementation\ncontract StarNotary is ERC721 {\n    // Star data\n    struct Star {\n        string name;\n    }\n\n    // Implement Task 1 Add a name and symbol properties\n    // name: Is a short name to your token\n    // symbol: Is a short string like 'USD' -> 'American Dollar'\n    constructor () ERC721(\"Star Notary\", \"ST\") {}\n\n    // mapping the Star with the Owner Address\n    mapping(uint256 => Star) public tokenIdToStarInfo;\n    // mapping the TokenId and price\n    mapping(uint256 => uint256) public starsForSale;\n\n    // Create Star using the Struct\n    function createStar(string memory _name, uint256 _tokenId) public { // Passing the name and tokenId as a parameters\n        Star memory newStar = Star(_name); // Star is an struct so we are creating a new Star\n\n        tokenIdToStarInfo[_tokenId] = newStar; // Creating in memory the Star -> tokenId mapping\n        _mint(msg.sender, _tokenId); // _mint assign the the star with _tokenId to the sender address (ownership)\n    }\n\n    // Putting an Star for sale (Adding the star tokenid into the mapping starsForSale, first verify that the sender is the owner)\n    function putStarUpForSale(uint256 _tokenId, uint256 _price) public {\n        require(ownerOf(_tokenId) == msg.sender, \"You can't sale the Star you don't owned\");\n        starsForSale[_tokenId] = _price;\n    }\n\n    function buyStar(uint256 _tokenId) public  payable {\n        require(starsForSale[_tokenId] > 0, \"The star must be up for sale!\");\n\n        uint256 costOfStar = starsForSale[_tokenId];\n        address addressOfOwner = ownerOf(_tokenId);\n\n        require(msg.value >= costOfStar, \"Not enough Ether!\");\n\n        _transfer(addressOfOwner, msg.sender, _tokenId); // We can't use _addTokenTo or_removeTokenFrom functions, now we have to use _transferFrom\n\n        payable(addressOfOwner).transfer(costOfStar);\n\n        if(msg.value > costOfStar) {\n            payable(msg.sender).transfer(msg.value - costOfStar);\n        }\n    }\n\n    // Implement Task 1 lookUptokenIdToStarInfo\n    function lookUptokenIdToStarInfo (uint _tokenId) public view returns (string memory) {\n        //1. You should return the Star saved in tokenIdToStarInfo mapping\n        require(_exists(_tokenId), \"Token doesn't exit\");\n\n        return tokenIdToStarInfo[_tokenId].name;\n    }\n\n    // Implement Task 1 Exchange Stars function\n    function exchangeStars(uint256 _tokenId1, uint256 _tokenId2) public {\n        address ownerToken1 = ownerOf(_tokenId1);\n        address ownerToken2 = ownerOf(_tokenId2);\n\n        require(ownerToken1 != ownerToken2, \"Owner of both token is same\");\n\n        if (_msgSender() == ownerToken1) {\n            _transfer(ownerToken1, ownerToken2, _tokenId1);\n            _transfer(ownerToken2, ownerToken1, _tokenId2);\n\n            require(ownerToken2 == ownerOf(_tokenId1), \"Couldn't transfer token1 to 2nd address.\");\n\n            require(ownerToken1 == ownerOf(_tokenId2), \"Couldn't transfer token2 to 1st address.\");\n        } else {\n            _transfer(ownerToken2, ownerToken1, _tokenId1);\n            _transfer(ownerToken1, ownerToken2, _tokenId2);\n\n            require(ownerToken1 == ownerOf(_tokenId1), \"Couldn't transfer token1 to 1st address\");\n\n            require(ownerToken2 == ownerOf(_tokenId2), \"Couldn't transfer token2 to 2nd address\");\n        }\n    }\n\n    // Implement Task 1 Transfer Stars\n    function transferStar(address _to1, uint256 _tokenId) public {\n        //1. Check if the sender is the ownerOf(_tokenId)\n        require(_msgSender() == ownerOf(_tokenId), \"Sender is not the owner.\");\n\n        //2. Use the transferFrom(from, to, tokenId); function to transfer the Star\n        transferFrom(_msgSender(), _to1, _tokenId);\n\n        require(_to1 == ownerOf(_tokenId), \"Transfer of token failed!\");\n    }\n}\n",
  "sourcePath": "D:\\Users\\bhuvan\\Desktop\\bhuvanjeet-starNotary\\udacity-blockchain-developer-nanodegree-project-2-master\\contracts\\StarNotary.sol",
  "compiler": {
    "name": "solc",
    "version": "0.8.3+commit.8d00100c.Emscripten.clang"
  },
  "schemaVersion": "3.4.13",
  "updatedAt": "2023-04-09T08:13:14.548Z",
  "networkType": "ethereum",
  "devdoc": {
    "kind": "dev",
    "methods": {
      "approve(address,uint256)": {
        "details": "See {IERC721-approve}."
      },
      "balanceOf(address)": {
        "details": "See {IERC721-balanceOf}."
      },
      "getApproved(uint256)": {
        "details": "See {IERC721-getApproved}."
      },
      "isApprovedForAll(address,address)": {
        "details": "See {IERC721-isApprovedForAll}."
      },
      "name()": {
        "details": "See {IERC721Metadata-name}."
      },
      "ownerOf(uint256)": {
        "details": "See {IERC721-ownerOf}."
      },
      "safeTransferFrom(address,address,uint256)": {
        "details": "See {IERC721-safeTransferFrom}."
      },
      "safeTransferFrom(address,address,uint256,bytes)": {
        "details": "See {IERC721-safeTransferFrom}."
      },
      "setApprovalForAll(address,bool)": {
        "details": "See {IERC721-setApprovalForAll}."
      },
      "supportsInterface(bytes4)": {
        "details": "See {IERC165-supportsInterface}."
      },
      "symbol()": {
        "details": "See {IERC721Metadata-symbol}."
      },
      "tokenURI(uint256)": {
        "details": "See {IERC721Metadata-tokenURI}."
      },
      "transferFrom(address,address,uint256)": {
        "details": "See {IERC721-transferFrom}."
      }
    },
    "version": 1
  },
  "userdoc": {
    "kind": "user",
    "methods": {},
    "version": 1
  }
}